:020000040800F2
:1000000000500020D1270008792700088127000828
:1000100089270008912700089927000800000000A0
:10002000000000000000000000000000A127000800
:10003000AD27000800000000B927000815160008C9
:10004000192800081928000819280008192800088C
:10005000192800081928000819280008192800087C
:10006000192800081928000819280008192800086C
:10007000192800081928000819280008192800085C
:10008000192800081928000819280008192800084C
:10009000192800081928000819280008192800083C
:1000A000192800081928000819280008192800082C
:1000B000192800081928000819280008192800081C
:1000C000192800081928000819280008192800080C
:1000D00019280008192800081928000819280008FC
:1000E0001928000819280008192800080000000035
:1000F0000000000000000000000000000000000000
:0C01000000000000000000005FF808F1A3
:10010C0010B5054C237833B9044B13B10448AFF345
:10011C0000800123237010BD0C00002000000000A3
:10012C00D03F000808B5034B1BB103490348AFF39C
:10013C00008008BD0000000010000020D03F000827
:10014C0081F0004102E000BF83F0004330B54FEA7C
:10015C0041044FEA430594EA050F08BF90EA020FE9
:10016C001FBF54EA000C55EA020C7FEA645C7FEA7C
:10017C00655C00F0E2804FEA5454D4EB5555B8BF9F
:10018C006D420CDD2C4480EA020281EA030382EA10
:10019C00000083EA010180EA020281EA0303362DA2
:1001AC0088BF30BD11F0004F4FEA01314FF4801C75
:1001BC004CEA113102D0404261EB410113F0004F87
:1001CC004FEA03334CEA133302D0524263EB43033E
:1001DC0094EA050F00F0A780A4F10104D5F1200EDC
:1001EC000DDB02FA0EFC22FA05F2801841F1000137
:1001FC0003FA0EF2801843FA05F359410EE0A5F10B
:10020C0020050EF1200E012A03FA0EFC28BF4CF03B
:10021C00020C43FA05F3C01851EBE37101F00045F1
:10022C0007D54FF0000EDCF1000C7EEB00006EEBFE
:10023C000101B1F5801F1BD3B1F5001F0CD3490888
:10024C005FEA30004FEA3C0C04F101044FEA4452DF
:10025C0012F5800F80F09A80BCF1004F08BF5FEA66
:10026C00500C50F1000041EB045141EA050130BD46
:10027C005FEA4C0C404141EB0101013C28BFB1F558
:10028C00801FE9D291F0000F04BF01460020B1FAA3
:10029C0081F308BF2033A3F10B03B3F120020CDA76
:1002AC000C3208DD02F1140CC2F10C0201FA0CF054
:1002BC0021FA02F10CE002F11402D8BFC2F1200CB9
:1002CC0001FA02F120FA0CFCDCBF41EA0C0190406F
:1002DC00E41AA2BF01EB0451294330BD6FEA0404B8
:1002EC001F3C1CDA0C340EDC04F11404C4F12002A3
:1002FC0020FA04F001FA02F340EA030021FA04F3B5
:10030C0045EA030130BDC4F10C04C4F1200220FA0B
:10031C0002F001FA04F340EA0300294630BD21FA49
:10032C0004F0294630BD94F0000F83F4801306BF0F
:10033C0081F480110134013D4EE77FEA645C18BF03
:10034C007FEA655C29D094EA050F08BF90EA020F9A
:10035C0005D054EA000C04BF1946104630BD91EA92
:10036C00030F1EBF0021002030BD5FEA545C05D195
:10037C004000494128BF41F0004130BD14F58004D4
:10038C003CBF01F5801130BD01F0004545F0FE4148
:10039C0041F470014FF0000030BD7FEA645C1ABF7D
:1003AC00194610467FEA655C1CBF0B46024650EAB4
:1003BC00013406BF52EA033591EA030F41F40021E0
:1003CC0030BD00BF90F0000F04BF0021704730B566
:1003DC004FF4806404F132044FF000054FF000013B
:1003EC0050E700BF90F0000F04BF0021704730B5FC
:1003FC004FF4806404F1320410F0004548BF4042D1
:10040C004FF000013EE700BF42004FEAE2014FEA25
:10041C0031014FEA02701FBF12F07F4393F07F4F00
:10042C0081F06051704732F07F4208BF704793F003
:10043C007F4F04BF41F40021704730B54FF4607416
:10044C0001F0004521F000411CE700BF50EA010219
:10045C0008BF704730B54FF000050AE050EA0102C2
:10046C0008BF704730B511F0004502D5404261EB32
:10047C0041014FF4806404F132045FEA915C3FF473
:10048C00D8AE4FF003025FEADC0C18BF03325FEA10
:10049C00DC0C18BF033202EBDC02C2F1200300FAC1
:1004AC0003FC20FA02F001FA03FE40EA0E0021FAE6
:1004BC0002F11444BDE600BF70B54FF0FF0C4CF4D4
:1004CC00E06C1CEA11541DBF1CEA135594EA0C0F86
:1004DC0095EA0C0F00F0DEF82C4481EA030621EAC1
:1004EC004C5123EA4C5350EA013518BF52EA0335FC
:1004FC0041F4801143F4801338D0A0FB02CE4FF0AE
:10050C000005E1FB02E506F00042E0FB03E54FF0DD
:10051C000006E1FB03569CF0000F18BF4EF0010ED5
:10052C00A4F1FF04B6F5007F64F5407404D25FEAD1
:10053C004E0E6D4146EB060642EAC62141EA555184
:10054C004FEAC52040EA5E504FEACE2EB4F1FD0CC6
:10055C0088BFBCF5E06F1ED8BEF1004F08BF5FEA44
:10056C00500E50F1000041EB045170BD06F00046F6
:10057C0046EA010140EA020081EA0301B4EB5C04A3
:10058C00C2BFD4EB0C0541EA045170BD41F480119B
:10059C004FF0000E013C00F3AB8014F1360FDEBFC0
:1005AC00002001F0004170BDC4F10004203C35DA9C
:1005BC000C341BDC04F11404C4F1200500FA05F31F
:1005CC0020FA04F001FA05F240EA020001F00042C0
:1005DC0021F0004110EBD37021FA04F642EB060136
:1005EC005EEA430E08BF20EAD37070BDC4F10C0460
:1005FC00C4F1200500FA04F320FA05F001FA04F224
:10060C0040EA020001F0004110EBD37041F100010F
:10061C005EEA430E08BF20EAD37070BDC4F120051A
:10062C0000FA05F24EEA020E20FA04F301FA05F282
:10063C0043EA020321FA04F001F0004121FA04F22A
:10064C0020EA020000EBD3705EEA430E08BF20EAFA
:10065C00D37070BD94F0000F0FD101F00046400034
:10066C0041EB010111F4801F08BF013CF7D041EAB6
:10067C00060195F0000F18BF704703F000465200BA
:10068C0043EB030313F4801F08BF013DF7D043EA8B
:10069C000603704794EA0C0F0CEA135518BF95EA41
:1006AC000C0F0CD050EA410618BF52EA4306D1D1C8
:1006BC0081EA030101F000414FF0000070BD50EAE7
:1006CC00410606BF1046194652EA430619D094EA71
:1006DC000C0F02D150EA013613D195EA0C0F05D15B
:1006EC0052EA03361CBF104619460AD181EA0301AF
:1006FC0001F0004141F0FE4141F470014FF0000067
:10070C0070BD41F0FE4141F4780170BD70B54FF001
:10071C00FF0C4CF4E06C1CEA11541DBF1CEA135581
:10072C0094EA0C0F95EA0C0F00F0A7F8A4EB050463
:10073C0081EA030E52EA03354FEA013100F088805A
:10074C004FEA03334FF0805545EA131343EA126323
:10075C004FEA022245EA111545EA10654FEA0026D8
:10076C000EF000419D4208BF964244F1FD0404F591
:10077C00407402D25B084FEA3202B61A65EB0305ED
:10078C005B084FEA32024FF480104FF4002CB6EBAA
:10079C00020E75EB030E22BFB61A754640EA0C002A
:1007AC005B084FEA3202B6EB020E75EB030E22BF6A
:1007BC00B61A754640EA5C005B084FEA3202B6EBAB
:1007CC00020E75EB030E22BFB61A754640EA9C006A
:1007DC005B084FEA3202B6EB020E75EB030E22BF3A
:1007EC00B61A754640EADC0055EA060E18D04FEAF8
:1007FC00051545EA16754FEA06164FEAC30343EA98
:10080C0052734FEAC2025FEA1C1CC0D111F4801F64
:10081C000BD141EA00014FF000004FF0004CB6E75D
:10082C0011F4801F04BF01430020B4F1FD0C88BFFC
:10083C00BCF5E06F3FF6AFAEB5EB030C04BFB6EB07
:10084C00020C5FEA500C50F1000041EB045170BDFA
:10085C000EF0004E4EEA113114EB5C04C2BFD4EB27
:10086C000C0541EA045170BD41F480114FF0000EAB
:10087C00013C90E645EA060E8DE60CEA135594EA27
:10088C000C0F08BF95EA0C0F3FF43BAF94EA0C0F2A
:10089C000AD150EA01347FF434AF95EA0C0F7FF49F
:1008AC0025AF104619462CE795EA0C0F06D152EAF3
:1008BC0003353FF4FDAE1046194622E750EA4106D7
:1008CC0018BF52EA43067FF4C5AE50EA41047FF4E8
:1008DC000DAF52EA43057FF4EBAE12E74FEA41024B
:1008EC00B2F1E04324BFB3F5001CDCF1FE5C0DD982
:1008FC0001F0004C4FEAC0024CEA5070B2F1004FCC
:10090C0040EB830008BF20F00100704711F0804FCE
:10091C0021D113F13872BCBF01F00040704741F493
:10092C0080114FEA5252C2F11802C2F1200C10FA97
:10093C000CF320FA02F018BF40F001004FEAC1237B
:10094C004FEAD32303FA0CFC40EA0C0023FA02F31F
:10095C004FEA4303CCE77FEA625307D150EA0133F5
:10096C001EBF4FF0FE4040F44000704701F00040C5
:10097C0040F0FE4040F40000704700BF4FF0FF0C09
:10098C001CEAD0521EBF1CEAD15392EA0C0F93EA18
:10099C000C0F6FD01A4480EA010C400218BF5FEABA
:1009AC0041211ED04FF0006343EA501043EA51112D
:1009BC00A0FB01310CF00040B1F5000F3EBF490027
:1009CC0041EAD3715B0040EA010062F17F02FD2A2B
:1009DC001DD8B3F1004F40EBC25008BF20F001000E
:1009EC00704790F0000F0CF0004C08BF49024CEA25
:1009FC00502040EA51207F3AC2BFD2F1FF0340EAB7
:100A0C00C250704740F400004FF00003013A5DDC27
:100A1C0012F1190FDCBF00F000407047C2F1000268
:100A2C00410021FA02F1C2F1200200FA02FC5FEA55
:100A3C00310040F1000053EA4C0308BF20EADC709F
:100A4C00704792F0000F00F0004C02BF400010F411
:100A5C00000F013AF9D040EA0C0093F0000F01F0BE
:100A6C00004C02BF490011F4000F013BF9D041EAE0
:100A7C000C018FE70CEAD15392EA0C0F18BF93EAE2
:100A8C000C0F0AD030F0004C18BF31F0004CD8D10C
:100A9C0080EA010000F00040704790F0000F17BF93
:100AAC0090F0004F084691F0000F91F0004F14D0D9
:100ABC0092EA0C0F01D142020FD193EA0C0F03D131
:100ACC004B0218BF084608D180EA010000F0004034
:100ADC0040F0FE4040F40000704740F0FE4040F40F
:100AEC00400070474FF0FF0C1CEAD0521EBF1CEAAE
:100AFC00D15392EA0C0F93EA0C0F69D0A2EB0302CC
:100B0C0080EA010C49024FEA402037D04FF0805365
:100B1C0043EA111143EA10130CF000408B4238BF2A
:100B2C005B0042F17D024FF4000C8B4224BF5B1A38
:100B3C0040EA0C00B3EB510F24BFA3EB510340EA86
:100B4C005C00B3EB910F24BFA3EB910340EA9C0034
:100B5C00B3EBD10F24BFA3EBD10340EADC001B01A4
:100B6C0018BF5FEA1C1CE0D1FD2A3FF650AF8B4248
:100B7C0040EBC25008BF20F0010070470CF0004C55
:100B8C004CEA50207F32C2BFD2F1FF0340EAC25080
:100B9C00704740F400004FF00003013A37E792F041
:100BAC00000F00F0004C02BF400010F4000F013A9F
:100BBC00F9D040EA0C0093F0000F01F0004C02BF9A
:100BCC00490011F4000F013BF9D041EA0C0195E703
:100BDC000CEAD15392EA0C0F08D142027FF47DAF9C
:100BEC0093EA0C0F7FF470AF084676E793EA0C0F8C
:100BFC0004D14B023FF44CAF08466EE730F0004C8A
:100C0C0018BF31F0004CCAD130F000427FF45CAF19
:100C1C0031F000437FF43CAF5FE700BF4FEA400286
:100C2C00B2F1FE4F0FD34FF09E03B3EB12620DD90E
:100C3C004FEA002343F0004310F0004F23FA02F078
:100C4C0018BF404270474FF00000704712F1610F1F
:100C5C0001D1420205D110F0004008BF6FF00040F6
:100C6C0070474FF00000704780B485B000AF7860DB
:100C7C007B684FF47A5202FB03F3FB60064AFB6875
:100C8C005360054B00229A60034B07221A6000BF89
:100C9C001437BD4680BC704710E000E080B483B0D0
:100CAC0000AF0D4B1B68002283F8202000237B60D3
:100CBC0009E0094B1A687B681344183300221A7038
:100CCC007B6801337B607B68032BF2DD00BF00BFC8
:100CDC000C37BD4680BC70472800002080B483B020
:100CEC0000AF786039607B68002B14DD7B68042BC7
:100CFC0011DC3B68002B10DB7B68092B0DDC094BEE
:100D0C001A687B68013B0848396801440978134428
:100D1C000A461A7602E000BF00E000BF0C37BD4661
:100D2C0080BC704728000020E83F000880B483B0E6
:100D3C0000AF78600B46FB707B68002B55DD7B6841
:100D4C00042B52DCFB78062B50D801A252F823F06E
:100D5C00790D00088B0D00089D0D0008AF0D0008E3
:100D6C00C10D0008D30D0008E50D0008214B1A68D1
:100D7C007B68013BBF2113440A461A7636E01D4BB3
:100D8C001A687B68013BF72113440A461A762DE05A
:100D9C00184B1A687B68013BC62113440A461A7625
:100DAC0024E0144B1A687B68013B862113440A46E5
:100DBC001A761BE00F4B1A687B68013B8E2113449B
:100DCC000A461A7612E00B4B1A687B68013B9C2191
:100DDC0013440A461A7609E0064B1A687B68013BF5
:100DEC00FF2113440A461A7600E000BF0C37BD46BB
:100DFC0080BC70472800002080B483B000AF002373
:100E0C007B600FE00C4B19680B4B1A687B680B442A
:100E1C00183319787B6813441C330A461A707B68A4
:100E2C0001337B607B68032BECDD00BF00BF0C370C
:100E3C00BD4680BC704700BF2800002080B584B040
:100E4C0000AF0023FB603CE00822FB6842FA03F38E
:100E5C007B60204B1A68FB6813441C331B78BB6007
:100E6C001C4B1B6893F820301A46FB6842FA03F3BC
:100E7C0003F00103002B03D0BB6803F07F03BB60BE
:100E8C007B68DBB2184600F027F8BB68DBB218466B
:100E9C0000F022F80F4B1B68D8680E4B1B681B899F
:100EAC000022194601F054FE0A4B1B68D868094B06
:100EBC001B681B890122194601F04AFEFB680133AD
:100ECC00FB60FB68032BBFDD00BF00BF1037BD46C6
:100EDC0080BD00BF2800002080B584B000AF034661
:100EEC00FB710823FB7332E097F90730002B0ADB08
:100EFC001B4B1B6858691A4B1B681B8A012219462D
:100F0C0001F026FE09E0164B1B685869144B1B6850
:100F1C001B8A0022194601F01BFEFB795B00FB715A
:100F2C000F4B1B6858680E4B1B681B880022194618
:100F3C0001F00EFE0A4B1B685868094B1B681B8896
:100F4C000122194601F004FEFB7B013BFB73FB7B8A
:100F5C00002BC9D100BF00BF1037BD4680BD00BFFC
:100F6C002800002080B588B000AF78600B46FB707D
:100F7C007B6842F20F7293420DDD7B684A4A82FB1A
:100F8C0003121113DA178A1A42F2107101FB02F2E2
:100F9C009B1A7B6010E07B6813F57A7F0CDC7B6816
:100FAC00424A82FB03129111DA178A1A4FF47A71B2
:100FBC0001FB02F29B1A7B600023FB617B68002B18
:100FCC00B8BF5B423B613B6942F20F72934206DC55
:100FDC003B69B3F57A7F02DB0423FB611AE03B69C2
:100FEC00B3F57A7F05DA3B69632B02DD0323FB61E2
:100FFC0010E03B69632B05DC3B69092B02DD022306
:10100C00FB6107E03B69092B04DC3B69002B01DB2E
:10101C000123FB617B68002B02DAFB690133FB6166
:10102C0042F21073BB6101237B6135E0BB69204A3E
:10103C0082FB03129210DB17D31ABB61FB7883F08F
:10104C000103DBB2002B05D0FB69C3F104037A6901
:10105C009A421DDD7B68002B07DA00217869FFF7C7
:10106C0065FE7B685B427B6013E07A68BB6992FB30
:10107C00F3F3FB607B68BA6993FBF2F2B96901FB8D
:10108C0002F29B1A7B60F9687869FFF727FE00E093
:10109C0000BF7B6901337B617B69042BC6DD00BF1C
:1010AC0000BF2037BD4680BDAD8BDB68D34D6210D1
:1010BC006766666680B582B000AF78600B46FB70E1
:1010CC00FFF7ECFDFB7819467868FFF74BFFFFF74D
:1010DC0093FE00BF0837BD4680BD000080B483B0CE
:1010EC0000AF78607B680E4A82FB03129210DB170C
:1010FC00D31ADBB21B01D8B27A68094B83FB0213FB
:10110C009910D317C91A0B469B000B445B00D11ADC
:10111C00CBB20344DBB218460C37BD4680BC7047DB
:10112C006766666680B483B000AF0346FB71FB79DB
:10113C001B09DBB21A4613469B0013445B001A468C
:10114C00FB7903F00F03134418460C37BD4680BCE3
:10115C007047000090B589B004AF044608461146AC
:10116C001A462346FB710346BB710B467B71134633
:10117C003B71FB791846FFF7B1FF03463B72BB7915
:10118C001846FFF7ABFF03467B727B791846FFF7D7
:10119C00A5FF0346BB723B791846FFF79FFF03463A
:1011AC00FB7297F820301846FFF798FF03463B7305
:1011BC0097F824301846FFF791FF03467B7397F896
:1011CC0028301846FFF78AFF0346BB734FF47A7337
:1011DC0002930723019307F10803009301230022D4
:1011EC00D021034801F010FE00BF1437BD4690BD5E
:1011FC003400002080B586B004AF4FF47A730293AC
:10120C00072301933B46009301230022D0211F4862
:10121C0001F0F4FE3B781846FFF784FF0346DAB280
:10122C001B4B1A707B781846FFF77CFF0346DAB22B
:10123C00174B5A70BB781846FFF774FF0346DAB2A7
:10124C00134B9A70FB781846FFF76CFF0346DAB223
:10125C000F4BDA703B791846FFF764FF0346DAB29E
:10126C000B4B1A717B791846FFF75CFF0346DAB219
:10127C00074B5A71BB791846FFF754FF0346DAB295
:10128C00034B9A7100BF0837BD4680BD3400002067
:10129C002C000020B0B586B004AF4FF47A730293E3
:1012AC00022301933B1D009301231122D0211248EC
:1012BC0001F0A4FE3B791846FFF794F804460D465E
:1012CC007B799B09DBB21846FFF78CF84FF00002D4
:1012DC000A4BFFF71BFA02460B4620462946FEF73F
:1012EC0035FF02460B4610461946FFF7F7FA034640
:1012FC0018460837BD46B0BD340000200000104031
:10130C0080B586B004AF0023FB710023BB7164234E
:10131C00029301230193FB1D009301230F22D02183
:10132C00134801F06BFEFB7903F00403002B1BD177
:10133C006423029301230193BB1D009301230E220E
:10134C00D0210B4801F05AFEBB7943F02003DBB2ED
:10135C001A466423029301230193009201230E2267
:10136C00D021034801F050FD00BF0837BD4680BDB9
:10137C003400002080B483B000AF074B1B685B6A5D
:10138C007B607B68002B01DC00237B607B6818464C
:10139C000C37BD4680BC70478800002080B500AF7C
:1013AC0000F0BAF800F036F800F062F84FF47A70FA
:1013BC00FFF75AFC144B9B6803F00103002B05D07C
:1013CC00124B1B68184600F045FCF3E70121002086
:1013DC0002F030FC0E4B4FF400221A610C4B4FF410
:1013EC0080121A6106210120FFF7A0FC06210220C1
:1013FC00FFF79CFC06210320FFF798FC0621042034
:10140C00FFF794FCD6E700BF000C0140D000002091
:10141C000008014080B500AF124B134A1A60114B03
:10142C00124A5A600F4B00229A600E4B0022DA606F
:10143C000C4B4FF480421A610A4B00225A61094B43
:10144C0000229A61074B0022DA61064B00221A62D5
:10145C00044801F095FB0346002B01D000F0E6F8A0
:10146C0000BF80BD3400002000540040801A0600EC
:10147C0080B58CB000AF07F10C0324220021184674
:10148C0002F074FD3B1D00221A605A60214B4FF094
:10149C0080421A601F4B00225A601E4B00229A6039
:1014AC001C4B4FF6FF72DA601A4B00221A61194B73
:1014BC0000229A610123FB6000233B6101237B61C5
:1014CC000023BB610023FB6100233B6201237B6291
:1014DC000023BB620023FB6207F10C0319460D4885
:1014EC0002F0E2FB0346002B01D000F09FF8002332
:1014FC007B600023BB603B1D1946064802F0D8FCFC
:10150C000346002B01D000F091F800BF3037BD46E8
:10151C0080BD00BF8800002080B588B000AF07F107
:10152C00100300221A605A609A60DA60334B9B6990
:10153C00324A43F020039361304B9B6903F0200344
:10154C00FB60FB682D4B9B692C4A43F004039361B1
:10155C002A4B9B6903F00403BB60BB68274B9B6958
:10156C00264A43F008039361244B9B6903F008035C
:10157C007B607B68002240F61861214801F0E8FA94
:10158C00002202211F4801F0E3FA04233B610023EF
:10159C007B610123BB6107F110031946184801F068
:1015AC0053F940F618633B6101237B610023BB6157
:1015BC000223FB6107F110031946114801F044F9AD
:1015CC0001233B6100237B610223BB6107F1100304
:1015DC0019460C4801F038F902233B6101237B6169
:1015EC000023BB610223FB6107F110031946054878
:1015FC0001F02AF900BF2037BD4680BD0010024023
:10160C0000080140000C014080B500AFFFF7F2FD6F
:10161C00FFF776FEFFF73EFE0346034A136001F028
:10162C00F7F800BF80BD00BFD000002080B400AF31
:10163C0072B600BF00BFFDE780B483B000AF0E4BA5
:10164C001B887B600D4B1B687A689A420FD00B4A43
:10165C007B6813607B6803F00103002B03D1084BFC
:10166C0008221A6103E0064B4FF400221A6100BFF6
:10167C000C37BD4680BC7047F0000020E000002015
:10168C000008014080B400AF7E4B1A687E4B1B688B
:10169C009A4245D07D4B1B78012B41D17C4B1B785A
:1016AC00002B3DD1774B1A68774B1B689A4205DDAE
:1016BC00784B1B680133774A136004E0754B1B6849
:1016CC00013B744A13606F4B1B686F4A1360714B7C
:1016DC001B68002B10DD6F4B00221A606E4B1B88B1
:1016EC0001339AB26C4B1A806B4B1B883B2B17D96E
:1016FC00694B00221A8013E0664B1B68002B0FDA33
:10170C00644B00221A60644B1B88013B9AB2624BFB
:10171C001A80614B1B88002B02D15F4B3B221A8035
:10172C00584B1A68584B1B689A4245D0574B1B783C
:10173C00022B41D1564B1B78002B3DD1514B1A68D3
:10174C00514B1B689A4205DD524B1B680133514AC1
:10175C00136004E04F4B1B68013B4E4A1360494B2E
:10176C001B68494A13604B4B1B68002B10DD494B1F
:10177C0000221A60494B1B8801339AB2474B1A80DE
:10178C00464B1B883B2B17D9444B00221A8013E085
:10179C00404B1B68002B0FDA3E4B00221A603F4B6C
:1017AC001B88013B9AB23D4B1A803C4B1B88002B8B
:1017BC0002D13A4B3B221A80324B1A68324B1B68CF
:1017CC009A4245D0314B1B78012B41D1304B1B78C1
:1017DC00012B3DD12B4B1A682B4B1B689A4205DD14
:1017EC002C4B1B6801332B4A136004E0294B1B68FC
:1017FC00013B284A1360234B1B68234A1360254B7B
:10180C001B68002B10DD234B00221A60244B1B8815
:10181C0001339AB2224B1A80214B1B88172B17D9F4
:10182C001F4B00221A8013E01A4B1B68002B0FDA97
:10183C00184B00221A601A4B1B88013B9AB2184BAA
:10184C001A80174B1B88002B02D1154B17221A80BC
:10185C000C4B1A680C4B1B689A4255D00B4B1B78DF
:10186C00022B51D10A4B1B78012B4DD1054B1A6819
:10187C00054B1B689A4215DD064B1B680133054A64
:10188C00136014E0E4000020E8000020EC000020CD
:10189C00D4000020DC000020FE000020FC00002012
:1018AC0000010020814B1B68013B804A1360804B78
:1018BC001B68804A13607D4B1B68002B10DD7B4B33
:1018CC0000221A607C4B1B8801339AB27A4B1A8027
:1018DC00794B1B883B2B17D9774B00221A8013E0CE
:1018EC00724B1B68002B0FDA704B00221A60724B84
:1018FC001B88013B9AB2704B1A806F4B1B88002BD4
:10190C0002D16D4B3B221A80694B1A68694B1B68DC
:10191C009A4245D0694B1B78012B41D1684B1B78FF
:10192C00022B3DD1624B1A68624B1B689A4205DD53
:10193C005E4B1B6801335D4A136004E05B4B1B6814
:10194C00013B5A4A13605A4B1B685A4A1360574B57
:10195C001B68002B10DD554B00221A60594B1B885D
:10196C0001339AB2574B1A80564B1B881F2B17D931
:10197C00544B00221A8013E04C4B1B68002B0FDADF
:10198C004A4B00221A604F4B1B88013B9AB24D4BBD
:10199C001A804C4B1B88002B02D14A4B1F221A80F9
:1019AC00434B1A68434B1B689A4245D0434B1B78F8
:1019BC00022B41D1424B1B78022B3DD13C4B1A6878
:1019CC003C4B1B689A4205DD384B1B680133374A88
:1019DC00136004E0354B1B68013B344A1360344BF5
:1019EC001B68344A1360314B1B68002B10DD2F4BE6
:1019FC0000221A60344B1B8801339AB2324B1A8086
:101A0C00314B1B880C2B17D92F4B00221A8013E05B
:101A1C00264B1B68002B0FDA244B00221A602A4B32
:101A2C001B88013B9AB2284B1A80274B1B88002B32
:101A3C0002D1254B0C221A801D4B1A681D4B1B68BA
:101A4C009A425BD01D4B1B78012B57D11C4B1B783A
:101A5C00032B53D1164B1A68164B1B689A4205DDA3
:101A6C00124B1B680133114A136004E00F4B1B68C7
:101A7C00013B0E4A13600E4B1B680E4A13600B4B56
:101A8C001B68002B24DD094B00221A600F4B1B88AE
:101A9C0001339AB20D4B1A800C4B1B8842F20F7219
:101AAC0093422BD9094B00221A8027E0DC0000203E
:101ABC00E4000020E8000020FE000020EC000020E4
:101ACC00D4000020020100200401002006010020A7
:101ADC00584B1B68002B11DA564B00221A60564BE0
:101AEC001B88013B9AB2544B1A80534B1B88B3F59D
:101AFC00FD6F03D8504B4FF4FD621A804F4B1A68A0
:101B0C004F4B1B689A4245D04E4B1B78012B41D151
:101B1C004D4B1B78052B3DD1484B1A68484B1B6825
:101B2C009A4205DD434B1B680133424A136004E0C3
:101B3C00404B1B68013B3F4A1360404B1B68404ABB
:101B4C0013603C4B1B68002B10DD3A4B00221A60D3
:101B5C003E4B1B780133DAB23C4B1A703B4B1B7873
:101B6C00172B17D9394B00221A7013E0314B1B6815
:101B7C00002B0FDA2F4B00221A60344B1B78013BE1
:101B8C00DAB2324B1A70314B1B78002B02D12F4B2F
:101B9C0017221A70294B1A68294B1B689A4245D098
:101BAC00284B1B78022B41D1274B1B78052B3DD1A1
:101BBC00224B1A68224B1B689A4205DD1D4B1B6891
:101BCC0001331C4A136004E01A4B1B68013B194A91
:101BDC0013601A4B1B681A4A1360164B1B68002BB8
:101BEC0010DD144B00221A60194B1B780133DAB24A
:101BFC00174B1A70164B1B783B2B17D9144B002222
:101C0C001A7013E00B4B1B68002B0FDA094B0022E8
:101C1C001A600F4B1B78013BDAB20D4B1A700C4B50
:101C2C001B78002B02D10A4B3B221A7000BFBD4619
:101C3C0080BC7047DC00002006010020E40000207E
:101C4C00E8000020EC000020D4000020EE00002072
:101C5C00EF000020F0B58BB004AF7860FFF78AFB83
:101C6C000346994A1360994B1B781A46984B1A8075
:101C7C00964B5B781A46974B1A80944B9B781A4676
:101C8C00954B1A80914BDB781A46944B1A808F4BEC
:101C9C001B791A46924B1A808C4B5B791A46914BE6
:101CAC001A808A4B9B7903F5F4639AB28E4B1A8097
:101CBC00854B1A688D4B1B689A4252D08C4B1B7803
:101CCC00002B4ED1804B1A68884B1B689A4205DD5D
:101CDC00884B1B680133874A136004E0854B1B68F3
:101CEC00013B844A1360784B1B68804A1360814B1C
:101CFC001B68022B18DD7F4B00221A607E4B1B7871
:101D0C00052B04D07C4B1B780133DBB200E00023A5
:101D1C00794A1370794B01221A70794B02221A619D
:101D2C00784B00221A701CE0724B1B6813F1020FE7
:101D3C0017DA704B00221A606F4B1B78002B04D003
:101D4C006D4B1B78013BDBB200E005236A4A137034
:101D5C006A4B01221A706A4B02221A61694B0022EB
:101D6C001A70FFF78FFC654B1B78002B10D0654B5E
:101D7C001B780133DAB2634B1A70624B1B78042B5D
:101D8C0006D95F4B4FF400321A615C4B00221A707B
:101D9C00594B1B78052B00F24F8401A252F823F00B
:101DAC00C51D00089F1F000861210008EB220008D8
:101DBC00ED2300085B240008534B9B6803F00403DD
:101DCC00002B14BF01230023FB73FB7B83F0010367
:101DDC00DBB2002B2DD04D4B1B78002B29D0444B64
:101DEC001B780133DAB2424B1A70414B1B78022B31
:101DFC0002D93F4B00221A70454B1B88D8B2454B79
:101E0C001B88DCB2344B1B88DDB2344B1B88DEB232
:101E1C00334B1B88DBB2334A1288D2B23249098861
:101E2C00C9B202910192009333462A462146FFF72C
:101E3C0091F9364AFB7B13702D4B1B78002B6DD11F
:101E4C00314B08221A61304B4FF480121A61FEF7A5
:101E5C0025FF204B1B88304AA2FB0323DB089BB2D7
:101E6C0019460120FEF73AFF1A4B1A882A4BA3FB9E
:101E7C000213D9080B469B000B445B00D31A9BB290
:101E8C0019460220FEF72AFF114B1B88224AA2FB9F
:101E9C000323DB089BB219460320FEF71FFF0C4BF4
:101EAC001A881D4BA3FB0213D9080B469B000B444D
:101EBC005B00D31A9BB219460420FEF70FFFFEF706
:101ECC009BFFFEF7BBFFB8E3E40000202C000020D2
:101EDC00F0000020F2000020F4000020F6000020AA
:101EEC00F8000020FA00002000000020E80000208C
:101EFC00EC000020D8000020D4000020D5000020E9
:101F0C00000C0140ED0000200008014008010020F9
:101F1C00FC000020FE000020CDCCCCCC7F4B1B88DD
:101F2C007F4AA2FB0323DB089BB219460120FEF774
:101F3C00D5FE7A4B1A887A4BA3FB0213D9080B46B1
:101F4C009B000B445B00D31A9BB219460220FEF790
:101F5C00C5FE744B1B88724AA2FB0323DB089BB2A1
:101F6C0019460320FEF7BAFE6E4B1A886C4BA3FB86
:101F7C000213D9080B469B000B445B00D31A9BB28F
:101F8C0019460420FEF7AAFEFEF736FFFEF756FFB1
:101F9C0053E3654B4FF480121A61FFF74DFB624B14
:101FAC009B6803F00403002B14BF012300233B7434
:101FBC003B7C83F00103DBB2002B2DD05B4B1B78F9
:101FCC00002B29D05A4B1B780133DAB2584B1A70BC
:101FDC00574B1B78022B02D9554B00221A70554BCC
:101FEC001B88D8B24D4B1B88DCB2534B1B88DDB21F
:101FFC00524B1B88DEB2524B1B88DBB2514A128803
:10200C00D2B251490988C9B2029101920093334668
:10201C002A462146FFF79EF8444A3B7C1370444BFA
:10202C001B78002B3CD1FEF739FE484B1B883C4AF1
:10203C00A2FB0323DB089BB219460120FEF74EFEE0
:10204C00424B1A88364BA3FB0213D9080B469B0054
:10205C000B445B00D31A9BB219460220FEF73EFEDE
:10206C003B4B1B882E4AA2FB0323DB089BB2194671
:10207C000320FEF733FE364B1A88294BA3FB0213C1
:10208C00D9080B469B000B445B00D31A9BB2194634
:10209C000420FEF723FEFEF7AFFEFEF7CFFECCE2E8
:1020AC00FEF7FCFD244B1B881D4AA2FB0323DB0817
:1020BC009BB219460120FEF711FE1F4B1A88184BD4
:1020CC00A3FB0213D9080B469B000B445B00D31AED
:1020DC009BB219460220FEF701FE104B1B88104ADA
:1020EC00A2FB0323DB089BB219460320FEF7F6FD87
:1020FC000A4B1A880A4BA3FB0213D9080B469B0008
:10210C000B445B00D31A9BB219460420FEF7E6FD84
:10211C00FEF772FEFEF792FE8FE200BFFE0000207B
:10212C00CDCCCCCCFC0000200008014009010020E3
:10213C00EC000020F000002000010020F600002040
:10214C00F8000020FA00002000000020F40000201D
:10215C00F2000020934B08221A61924B4FF480122C
:10216C001A61904B9B6803F00403002B14BF0123EE
:10217C0000237B747B7C83F00103DBB2002B2DD01E
:10218C00894B1B78002B29D0884B1B780133DAB292
:10219C00864B1A70854B1B78022B02D9834B00227D
:1021AC001A70834B1B88D8B2824B1B88DCB2824BD3
:1021BC001B88DDB2814B1B88DEB2814B1B88DBB2E6
:1021CC00804A1288D2B280490988C9B20291019220
:1021DC00009333462A462146FEF7BCFF724A7B7CAD
:1021EC001370724B1B78002B3CD1FEF757FD774BCD
:1021FC001B88774AA2FB0323DB089BB219460120FC
:10220C00FEF76CFD714B1A88714BA3FB0213D908B6
:10221C000B469B000B445B00D31A9BB21946022061
:10222C00FEF75CFD6B4B1B88694AA2FB0323DB08A2
:10223C009BB219460320FEF751FD664B1A88644B7E
:10224C00A3FB0213D9080B469B000B445B00D31A6B
:10225C009BB219460420FEF741FDFEF7CDFDFEF7BB
:10226C00EDFDEAE1FEF71AFD554B1B88584AA2FB1F
:10227C000323DB089BB219460120FEF72FFD504BC0
:10228C001A88534BA3FB0213D9080B469B000B4433
:10229C005B00D31A9BB219460220FEF71FFD494B77
:1022AC001B884B4AA2FB0323DB089BB21946032075
:1022BC00FEF714FD434B1A88454BA3FB0213D908B8
:1022CC000B469B000B445B00D31A9BB219460420AF
:1022DC00FEF704FDFEF790FDFEF7B0FDADE1314BCE
:1022EC004FF400221A612F4B4FF480121A612D4BC0
:1022FC009B6803F00403002B14BF01230023BB7461
:10230C00BB7C83F00103DBB2002B2DD0324B1B784E
:10231C00002B29D0254B1B780133DAB2234B1A70D2
:10232C00224B1B78012B02D9204B00221A70204B18
:10233C001B88D8B21F4B1B88DCB21F4B1B88DDB22D
:10234C001E4B1B88DEB2214B1B88DBB2214A128844
:10235C00D2B222490988C9B2029101920093334644
:10236C002A462146FEF7F6FE1B4ABB7C13700F4B28
:10237C001B78002B0AD1144B1B8801211846FEF741
:10238C0099FEFEF739FDFEF759FD56E1134B1B88FC
:10239C0001211846FEF78EFEFEF72EFDFEF74EFDD0
:1023AC004BE100BF000801400A010020EC000020B6
:1023BC00F0000020F2000020F4000020F6000020C5
:1023CC00020100200401002000000020F800002081
:1023DC00CDCCCCCCFA0000200B0100200601002053
:1023EC00984B4FF400221A61964B4FF480121A61ED
:1023FC00FEF754FC94497868FEF774FB03461846C4
:10240C00FEF70CFC034619460120FEF767FC7868C2
:10241C00FEF704FC01468D4B83FB01239A10CB176E
:10242C00D21A13469B0013445B00CA1A11460220B1
:10243C00FEF754FC05210320FEF778FC0221042052
:10244C00FEF774FCFEF7D8FCFEF7F8FCF5E0804BC9
:10245C009A78804B1B789A4243D17D4B5A787E4BAD
:10246C001B789A423DD17B4B1B78002B39D07B4B90
:10247C001B78002B35D07A4B1B887B61794B1B6802
:10248C007A699A4216D0774A7B6913607B6903F0AC
:10249C000103002B06D16B4B10221A61724B0222E6
:1024AC001A6107E0674B4FF480121A616E4B4FF4C0
:1024BC0000321A61634B9B6803F00403002B3AD182
:1024CC00644B00221A70644B00221A70634B00227A
:1024DC001A70654B4FF400321A61644B03221A7068
:1024EC0029E0584B10221A61564B9B6803F00403E9
:1024FC00002B14BF01230023FB74FB7C83F001032E
:10250C00DBB2002B13D05A4B1B78002B0FD0574B40
:10251C001B780133DAB2554B1A70544B1B78022BD3
:10252C0005D9524B00221A704C4B01221A70504A9A
:10253C00FB7C137000E000BF4C4B1B78002B3ED192
:10254C00FEF7ACFBFFF778F8424B1B78494AA2FB2D
:10255C000323DB08DBB219460120FEF7BFFB3D4B22
:10256C001A78444BA3FB0213D9080B469B000B446F
:10257C005B00D31ADBB219460220FEF7AFFB364BD9
:10258C001B783C4AA2FB0323DB08DBB21946032071
:10259C00FEF7A4FB304B1A78364BA3FB0213D90879
:1025AC000B469B000B445B00D31ADBB2194604208C
:1025BC00FEF794FBFEF720FCFEF740FC3DE0FEF737
:1025CC006DFB244B1B782B4AA2FB0323DB08DBB2ED
:1025DC0019460120FEF782FB1E4B1A78254BA3FBF4
:1025EC000213D9080B469B000B445B00D31ADBB2D9
:1025FC0019460220FEF772FB174B1B781D4AA2FBF3
:10260C000323DB08DBB219460320FEF767FB124BF2
:10261C001A78184BA3FB0213D9080B469B000B44EA
:10262C005B00D31ADBB219460420FEF757FBFEF70A
:10263C00E3FBFEF703FC00E000BF00BF1C37BD4608
:10264C00F0BD00BF000801400000204167666666CF
:10265C002C000020EE000020EF000020D60000200F
:10266C00F0000020E0000020000C0140EC000020F5
:10267C000C010020CDCCCCCC80B588B000AF7860FC
:10268C0007F1100300221A605A609A60DA607B68C6
:10269C001B68154A934223D1144B9B69134A43F090
:1026AC0008039361114B9B6903F00803FB60FB6803
:1026BC00C0233B6112237B610323FB6107F11003F1
:1026CC0019460B4800F0C0F8084BDB69074A43F485
:1026DC000013D361054BDB6903F40013BB60BB68CB
:1026EC0000BF2037BD4680BD0054004000100240A2
:1026FC00000C014080B588B000AF786007F1100382
:10270C0000221A605A609A60DA607B681B68B3F129
:10271C00804F23D1134BDB69124A43F00103D36181
:10272C00104BDB6903F00103FB60FB680D4B9B69ED
:10273C000C4A43F0040393610A4B9B6903F00403B6
:10274C00BB60BB6803233B6100237B610023BB613F
:10275C0007F110031946044800F076F800BF203743
:10276C00BD4680BD001002400008014080B400AF9F
:10277C0000BFFDE780B400AF00BFFDE780B400AF41
:10278C0000BFFDE780B400AF00BFFDE780B400AF31
:10279C0000BFFDE780B400AF00BFBD4680BC7047F2
:1027AC0080B400AF00BFBD4680BC704780B400AFA2
:1027BC0000BFBD4680BC704780B400AF00BFBD46B3
:1027CC0080BC7047FFF7F8FF0B480C490C4A0023FC
:1027DC0002E0D458C4500433C4188C42F9D3094ACB
:1027EC00094C002301E013600432A242FBD301F038
:1027FC00C5FBFEF7D3FD7047000000200C00002045
:10280C000C4000080C00002014010020FEE7000022
:10281C0080B400AF054B1B781A46054B1B6813445C
:10282C00034A136000BFBD4680BC704708000020FF
:10283C001001002080B400AF024B1B681846BD4647
:10284C0080BC70471001002080B48BB000AF786062
:10285C00396000237B6200233B6269E101227B6AC1
:10286C0002FA03F3FB613B681B68FA691340BB6116
:10287C00BA69FB699A4240F058813B685B689A4A96
:10288C0093425ED0984A934275D8984A934258D056
:10289C00964A93426FD8964A934252D0944A9342A6
:1028AC0069D8944A93424CD0924A934263D8924A44
:1028BC00934246D0904A93425DD8122B2AD8122BC1
:1028CC0059D801A252F823F04F29000829290008F1
:1028DC003B2900087D29000883290008832900086A
:1028EC00832900088329000883290008832900080C
:1028FC0083290008832900088329000883290008FC
:10290C00832900088329000883290008312900083D
:10291C0045290008794A934213D02CE03B68DB68C8
:10292C003B6229E03B68DB6804333B6224E03B6894
:10293C00DB6808333B621FE03B68DB680C333B62AF
:10294C001AE03B689B68002B02D104233B6213E026
:10295C003B689B68012B05D108233B627B68FA69B5
:10296C001A6109E008233B627B68FA695A6103E04B
:10297C0000233B6200E000BFBB69FF2B01D87B68E2
:10298C0001E07B6804337B61BB69FF2B02D87B6A57
:10299C009B0002E07B6A083B9B003B617B691A68E9
:1029AC000F213B6901FA03F3DB431A40396A3B6997
:1029BC0001FA03F31A437B691A603B685B6803F006
:1029CC008053002B00F0B1804D4B9B694C4A43F077
:1029DC00010393614A4B9B6903F00103BB60BB6825
:1029EC00484A7B6A9B08023352F82330FB607B6AAF
:1029FC0003F003039B000F2202FA03F3DB43FA6894
:102A0C001340FB607B68404A934213D07B683F4A7B
:102A1C0093420DD07B683E4A934207D07B683D4A77
:102A2C00934201D1032306E0042304E0022302E0D5
:102A3C00012300E000237A6A02F003029200934023
:102A4C00FA681343FB602F497B6A9B080233FA68D0
:102A5C0041F823203B685B6803F48013002B06D0FD
:102A6C002D4B9A682C49BB6913438B6006E02A4BAB
:102A7C009A68BB69DB43284913408B603B685B68F1
:102A8C0003F40013002B06D0234BDA682249BB69F0
:102A9C001343CB6006E0204BDA68BB69DB431E496D
:102AAC001340CB603B685B6803F40033002B06D00B
:102ABC00194B5A681849BB6913434B6006E0164B17
:102ACC005A68BB69DB43144913404B603B685B6835
:102ADC0003F48033002B21D00F4B1A680E49BB69CD
:102AEC0013430B6021E000BF0000321000003110D6
:102AFC000000221000002110000012100000111024
:102B0C00001002400000014000080140000C014090
:102B1C000010014000140140000401400B4B1A68E6
:102B2C00BB69DB43094913400B607B6A01337B6251
:102B3C003B681A687B6A22FA03F3002B7FF48EAE93
:102B4C0000BF00BF2C37BD4680BC7047000401405D
:102B5C0080B483B000AF78600B467B8013467B70EB
:102B6C007B78002B03D07A887B681A6103E07B8822
:102B7C001A047B681A6100BF0C37BD4680BC7047D5
:102B8C0080B584B000AF78607B68002B01D1012345
:102B9C002BE17B6893F83D30DBB2002B06D17B68D0
:102BAC00002283F83C207868FFF766FD7B682422BE
:102BBC0083F83D207B681B681A687B681B6822F0D1
:102BCC0001021A607B681B681A687B681B6842F4F8
:102BDC0000421A607B681B681A687B681B6822F4C9
:102BEC0000421A6001F04CF8F8607B685B68814A1F
:102BFC00934207D8FB68804A934294BF0123002379
:102C0C00DBB206E0FB687D4A934294BF01230023AC
:102C1C00DBB2002B01D00123E7E0FB68784AA2FB72
:102C2C0003239B0CBB607B681B685B6823F03F0134
:102C3C007B681B68BA680A435A607B681B681B6A0E
:102C4C0023F03F017B685B686A4A934202D8BB68F9
:102C5C00013309E0BB684FF4967202FB03F3694A37
:102C6C00A2FB03239B0901337A6812680B4313629E
:102C7C007B681B68DB6923F44F4222F0FF027B6800
:102C8C005B685C498B4219D8FB68591E7B685B6892
:102C9C005B00B1FBF3F3591C40F6FC730B40002BAB
:102CAC000AD0FB68591E7B685B685B00B1FBF3F3D1
:102CBC000133C3F30B0351E004234FE07B689B68A3
:102CCC00002B11D1FB68581E7B6859680B465B00C2
:102CDC000B44B0FBF3F30133C3F30B03002B0CBF1A
:102CEC0001230023DBB212E0FB68581E7B68596895
:102CFC000B469B000B4499000B44B0FBF3F30133E0
:102D0C00C3F30B03002B0CBF01230023DBB2002BFE
:102D1C0001D0012322E07B689B68002B0ED1FB685D
:102D2C00581E7B6859680B465B000B44B0FBF3F3F1
:102D3C000133C3F30B0343F400430FE0FB68581E4D
:102D4C007B6859680B469B000B4499000B44B0FB05
:102D5C00F3F30133C3F30B0343F44043796809687D
:102D6C001343CB617B681B681B6823F0C0017B6835
:102D7C00DA697B681B6A1A437B681B680A431A6012
:102D8C007B681B689B6823F4034323F0FF037A687A
:102D9C0011697A68D26811437A6812680B439360A0
:102DAC007B681B68DB6823F0FF017B685A697B68D2
:102DBC009B691A437B681B680A43DA607B681B6853
:102DCC001A687B681B6842F001021A607B6800225B
:102DDC001A647B68202283F83D207B6800221A63EA
:102DEC007B68002283F83E20002318461037BD462E
:102DFC0080BD00BFA08601007F841E00FF083D003F
:102E0C0083DE1B43D34D621080B588B002AFF860EF
:102E1C00084611461A4603467B810B463B811346F6
:102E2C00FB80FFF707FD7861FB6893F83D30DBB260
:102E3C00202B40F0D9807B690093192301226D4926
:102E4C00F86800F0C1FC0346002B01D00223CCE053
:102E5C00FB6893F83C30012B01D10223C5E0FB68E1
:102E6C00012283F83C20FB681B681B6803F00103FC
:102E7C00012B07D0FB681B681A68FB681B6842F0C3
:102E8C0001021A60FB681B681A68FB681B6822F455
:102E9C0000621A60FB68212283F83D20FB68402207
:102EAC0083F83E20FB6800221A64FB683A6A5A6277
:102EBC00FB68BA8C5A85FB685B8D9AB2FB681A85E5
:102ECC00FB684D4ADA62F8883A8979897B69019303
:102EDC00BB6A00930346F86800F0F8FA0346002B2F
:102EEC0052D0012381E07A69B96AF86800F086FD56
:102EFC000346002B0DD0FB681B6C042B07D1FB6821
:102F0C001B681A68FB681B6842F400721A60012384
:102F1C006BE0FB685B6A1A78FB681B681A61FB68DC
:102F2C005B6A5A1CFB685A62FB681B8D013B9AB2A8
:102F3C00FB681A85FB685B8D9BB2013B9AB2FB6800
:102F4C005A85FB681B685B6903F00403042B1BD1D7
:102F5C00FB681B8D002B17D0FB685B6A1A78FB682B
:102F6C001B681A61FB685B6A5A1CFB685A62FB6837
:102F7C001B8D013B9AB2FB681A85FB685B8D9BB27B
:102F8C00013B9AB2FB685A85FB681B8D002BAAD1BA
:102F9C007A69B96AF86800F079FD0346002B0DD008
:102FAC00FB681B6C042B07D1FB681B681A68FB6859
:102FBC001B6842F400721A60012316E0FB681B6860
:102FCC001A68FB681B6842F400721A60FB682022C6
:102FDC0083F83D20FB68002283F83E20FB6800222A
:102FEC0083F83C20002300E0022318461837BD4626
:102FFC0080BD00BF020010000000FFFF80B58CB048
:10300C0002AFF860084611461A4603467B810B4610
:10301C003B811346FB8000233B62FFF70BFC78627D
:10302C00FB6893F83D30DBB2202B40F044827B6A86
:10303C000093192301228249F86800F0C5FB03466E
:10304C00002B01D0022337E2FB6893F83C30012BB4
:10305C0001D1022330E2FB68012283F83C20FB689B
:10306C001B681B6803F00103012B07D0FB681B686E
:10307C001A68FB681B6842F001021A60FB681B6847
:10308C001A68FB681B6822F400621A60FB68222233
:10309C0083F83D20FB68402283F83E20FB68002229
:1030AC001A64FB683A6B5A62FB68BA8E5A85FB68E5
:1030BC005B8D9AB2FB681A85FB68624ADA62F88803
:1030CC003A8979897B6A0193BB6B00930346F86854
:1030DC0000F092FA0346002B01D00123ECE1FB68CF
:1030EC001B8D002B13D10023FB61FB681B685B69F4
:1030FC00FB61FB681B689B69FB61FB69FB681B68D8
:10310C001A68FB681B6842F400721A60C0E1FB6825
:10311C001B8D012B1ED1FB681B681A68FB681B6892
:10312C0022F480621A6072B600BF0023BB61FB6898
:10313C001B685B69BB61FB681B689B69BB61BB69F6
:10314C00FB681B681A68FB681B6842F400721A6003
:10315C0062B635E0FB681B8D022B1ED1FB681B6829
:10316C001A68FB681B6842F400621A6072B600BFF2
:10317C0000237B61FB681B685B697B61FB681B68D8
:10318C009B697B617B69FB681B681A68FB681B6821
:10319C0022F480621A6062B612E0FB681B681A683F
:1031AC00FB681B6842F480621A6000233B61FB6879
:1031BC001B685B693B61FB681B689B693B613B69F6
:1031CC0066E1FB681B8D032B00F21F81FB681B8DD6
:1031DC00012B23D17A6AB96BF86800F09FFC034687
:1031EC00002B01D0012367E1FB681B681A69FB689F
:1031FC005B6AD2B21A70FB685B6A5A1CFB685A6233
:10320C00FB681B8D013B9AB2FB681A85FB685B8DD2
:10321C009BB2013B9AB2FB685A8539E1FB681B8D66
:10322C00022B52D17B6A0093BB6B00220649F868D3
:10323C0000F0CAFA0346002B08D001233CE100BF82
:10324C00020010000000FFFF0400010072B600BF76
:10325C00FB681B681A68FB681B6842F400721A60F2
:10326C00FB681B681A69FB685B6AD2B21A70FB6850
:10327C005B6A5A1CFB685A62FB681B8D013B9AB255
:10328C00FB681A85FB685B8D9BB2013B9AB2FB68AD
:10329C005A8562B600BFFB681B681A69FB685B6ADB
:1032AC00D2B21A70FB685B6A5A1CFB685A62FB68E4
:1032BC001B8D013B9AB2FB681A85FB685B8D9BB238
:1032CC00013B9AB2FB685A85E2E07B6A0093BB6BC8
:1032DC0000227B49F86800F077FA0346002B01D0F6
:1032EC000123E9E0FB681B681A68FB681B6822F481
:1032FC0080621A6072B600BFFB681B681A69FB68B3
:10330C005B6AD2B21A70FB685B6A5A1CFB685A6221
:10331C00FB681B8D013B9AB2FB681A85FB685B8DC1
:10332C009BB2013B9AB2FB685A85664B1B68DB0863
:10333C00654AA2FB03231A0A13469B001344DA00C6
:10334C00D31A3B623B6A013B3B623B6A002B18D1B0
:10335C00FB6800221A63FB68202283F83D20FB687F
:10336C00002283F83E20FB681B6C43F02002FB68B4
:10337C001A6462B600BFFB68002283F83C2001236C
:10338C009AE0FB681B685B6903F00403042BD9D13A
:10339C00FB681B681A68FB681B6842F400721A60B1
:1033AC00FB681B681A69FB685B6AD2B21A70FB680F
:1033BC005B6A5A1CFB685A62FB681B8D013B9AB214
:1033CC00FB681A85FB685B8D9BB2013B9AB2FB686C
:1033DC005A8562B600BFFB681B681A69FB685B6A9A
:1033EC00D2B21A70FB685B6A5A1CFB685A62FB68A3
:1033FC001B8D013B9AB2FB681A85FB685B8D9BB2F7
:10340C00013B9AB2FB685A8542E07A6AB96BF8685C
:10341C0000F084FB0346002B01D001234CE0FB6839
:10342C001B681A69FB685B6AD2B21A70FB685B6A2C
:10343C005A1CFB685A62FB681B8D013B9AB2FB68F5
:10344C001A85FB685B8D9BB2013B9AB2FB685A856F
:10345C00FB681B685B6903F00403042B18D1FB6841
:10346C001B681A69FB685B6AD2B21A70FB685B6AEC
:10347C005A1CFB685A62FB681B8D013B9AB2FB68B5
:10348C001A85FB685B8D9BB2013B9AB2FB685A852F
:10349C00FB681B8D002B7FF494AEFB68202283F815
:1034AC003D20FB68002283F83E20FB68002283F855
:1034BC003C20002300E0022318462837BD4680BD7F
:1034CC00040001000400002089B5F81480B588B010
:1034DC0002AFF860084611461A4603467B810B463C
:1034EC003B811346FB80FB681B681A68FB681B68F2
:1034FC0042F480721A607B6A00933B6A00224FF0A0
:10350C000111F86800F060F90346002B0DD0FB6840
:10351C001B681B6803F48073B3F5807F03D1FB68D1
:10352C004FF400721A6403235FE07B89DBB21A4606
:10353C00FB681B6802F0FE021A617B6A3A6A2D492D
:10354C00F86800F0BBF90346002B01D001234CE0D6
:10355C0000237B61FB681B685B697B61FB681B68F4
:10356C009B697B617B697A6A396AF86800F046FA74
:10357C000346002B0DD0FB681B6C042B07D1FB689A
:10358C001B681A68FB681B6842F400721A600123FE
:10359C002BE0FB88012B05D13B89DAB2FB681B6859
:1035AC001A6121E03B891B0A9BB2DAB2FB681B68EB
:1035BC001A617A6A396AF86800F020FA0346002B1F
:1035CC000DD0FB681B6C042B07D1FB681B681A68B9
:1035DC00FB681B6842F400721A60012305E03B890A
:1035EC00DAB2FB681B681A61002318461837BD460F
:1035FC0080BD00BF0200010080B588B002AFF8604A
:10360C00084611461A4603467B810B463B811346FE
:10361C00FB80FB681B681A68FB681B6842F48062BD
:10362C001A60FB681B681A68FB681B6842F480729E
:10363C001A607B6A00933B6A00224FF00111F86814
:10364C0000F0C2F80346002B0DD0FB681B681B680A
:10365C0003F48073B3F5807F03D1FB684FF40072E1
:10366C001A640323AAE07B89DBB21A46FB681B6849
:10367C0002F0FE021A617B6A3A6A5249F86800F05D
:10368C001DF90346002B01D0012397E000237B6139
:10369C00FB681B685B697B61FB681B689B697B61D2
:1036AC007B697A6A396AF86800F0A8F90346002B3E
:1036BC000DD0FB681B6C042B07D1FB681B681A68C8
:1036CC00FB681B6842F400721A60012376E0FB88E9
:1036DC00012B05D13B89DAB2FB681B681A6121E02A
:1036EC003B891B0A9BB2DAB2FB681B681A617A6AC7
:1036FC00396AF86800F082F90346002B0DD0FB689C
:10370C001B6C042B07D1FB681B681A68FB681B68D1
:10371C0042F400721A60012350E03B89DAB2FB6874
:10372C001B681A617A6A396AF86800F067F903460F
:10373C00002B0DD0FB681B6C042B07D1FB681B689E
:10374C001A68FB681B6842F400721A60012335E0AA
:10375C00FB681B681A68FB681B6842F480721A606D
:10376C007B6A00933B6A00224FF00111F86800F06D
:10377C002BF80346002B0DD0FB681B681B6803F469
:10378C008073B3F5807F03D1FB684FF400721A6429
:10379C00032313E07B89DBB243F00103DAB2FB684D
:1037AC001B681A617B6A3A6A0649F86800F086F869
:1037BC000346002B01D0012300E0002318461837E4
:1037CC00BD4680BD0200010080B584B000AFF8603A
:1037DC00B9603B601346FB7148E03B68B3F1FF3FB7
:1037EC0044D0FFF727F80246BB69D31A3A689A42CD
:1037FC0002D33B68002B39D1BB681B0CDBB2012B0D
:10380C000DD1FB681B685B69DA43BB6813409BB244
:10381C00002B0CBF01230023DBB21A460CE0FB6823
:10382C001B689B69DA43BB6813409BB2002B0CBF2F
:10383C0001230023DBB21A46FB799A4216D1FB68AE
:10384C0000221A63FB68202283F83D20FB680022CB
:10385C0083F83E20FB681B6C43F02002FB681A6463
:10386C00FB68002283F83C20012323E0BB681B0C7F
:10387C00DBB2012B0DD1FB681B685B69DA43BB68BB
:10388C0013409BB2002B0CBF01230023DBB21A4662
:10389C000CE0FB681B689B69DA43BB6813409BB266
:1038AC00002B0CBF01230023DBB21A46FB799A4292
:1038BC0093D0002318461037BD4680BD80B584B028
:1038CC0000AFF860B9607A603B6071E0FB681B6820
:1038DC005B6903F48063B3F5806F23D1FB681B68CD
:1038EC001A68FB681B6842F400721A60FB681B685C
:1038FC006FF480625A61FB6800221A63FB68202215
:10390C0083F83D20FB68002283F83E20FB681B6C8B
:10391C0043F00402FB681A64FB68002283F83C2025
:10392C00012367E07B68B3F1FF3F41D0FEF782FFD4
:10393C0002463B68D31A7A689A4202D37B68002B02
:10394C0036D1BB681B0CDBB2012B0CD1FB681B689E
:10395C005B69DA43BB6813409BB2002B14BF012395
:10396C000023DBB20BE0FB681B689B69DA43BB6886
:10397C0013409BB2002B14BF01230023DBB2002B9E
:10398C0016D0FB6800221A63FB68202283F83D20C6
:10399C00FB68002283F83E20FB681B6C43F020027E
:1039AC00FB681A64FB68002283F83C20012321E0A9
:1039BC00BB681B0CDBB2012B0CD1FB681B685B6971
:1039CC00DA43BB6813409BB2002B14BF01230023C6
:1039DC00DBB20BE0FB681B689B69DA43BB681340E6
:1039EC009BB2002B14BF01230023DBB2002B7FF40E
:1039FC006DAF002318461037BD4680BD80B584B02E
:103A0C0000AFF860B9607A6034E0F86800F0E3F871
:103A1C000346002B01D0012334E0BB68B3F1FF3F18
:103A2C0028D0FEF707FF02467B68D31ABA689A4281
:103A3C0002D3BB68002B1DD1FB681B685B6903F0CC
:103A4C008003802B16D0FB6800221A63FB682022AF
:103A5C0083F83D20FB68002283F83E20FB681B6C3A
:103A6C0043F02002FB681A64FB68002283F83C20B8
:103A7C00012307E0FB681B685B6903F08003802B64
:103A8C00C3D1002318461037BD4680BD80B584B025
:103A9C0000AFF860B9607A6034E0F86800F09BF829
:103AAC000346002B01D0012334E0BB68B3F1FF3F88
:103ABC0028D0FEF7BFFE02467B68D31ABA689A423A
:103ACC0002D3BB68002B1DD1FB681B685B6903F03C
:103ADC000403042B16D0FB6800221A63FB68202217
:103AEC0083F83D20FB68002283F83E20FB681B6CAA
:103AFC0043F02002FB681A64FB68002283F83C2028
:103B0C00012307E0FB681B685B6903F00403042BCB
:103B1C00C3D1002318461037BD4680BD80B584B094
:103B2C0000AFF860B9607A6049E0FB681B685B69BC
:103B3C0003F01003102B19D1FB681B686FF01002F7
:103B4C005A61FB6800221A63FB68202283F83D202F
:103B5C00FB68002283F83E20FB681A6CFB681A6431
:103B6C00FB68002283F83C20012330E0FEF762FE64
:103B7C0002467B68D31ABA689A4202D3BB68002B00
:103B8C001DD1FB681B685B6903F04003402B16D00A
:103B9C00FB6800221A63FB68202283F83D20FB6837
:103BAC00002283F83E20FB681B6C43F02002FB686C
:103BBC001A64FB68002283F83C20012307E0FB68B1
:103BCC001B685B6903F04003402BAED10023184601
:103BDC001037BD4680BD80B483B000AF78607B6881
:103BEC001B685B6903F48063B3F5806F1BD17B6842
:103BFC001B686FF480625A617B6800221A637B68D1
:103C0C00202283F83D207B68002283F83E207B68CD
:103C1C001B6C43F004027B681A647B68002283F8F7
:103C2C003C20012300E0002318460C37BD4680BC25
:103C3C007047000080B483B000AF78600B46FB7017
:103C4C00094B1B69084A23F004031361FB78012B11
:103C5C0001D130BF02E040BF20BF20BF00BF0C37F6
:103C6C00BD4680BC704700BF00ED00E080B400AFE3
:103C7C00024B1B681846BD4680BC704704000020F0
:103C8C0080B500AFFFF7F2FF0246054B5B681B0ADD
:103C9C0003F007030349CB5C22FA03F3184680BDFB
:103CAC0000100240FC3F000880B586B000AF786081
:103CBC0039607B68002B01D1012393E07B6893F87A
:103CCC003D30DBB2002B06D17B68002283F83C2010
:103CDC007868FEF70FFD7B68022283F83D207B6835
:103CEC001B689B687A68126823F4804323F00703EF
:103CFC0093607B681A687B6804331946104600F0A1
:103D0C0075F87B681B689B687B617B681B689B698B
:103D1C003B617B681B681B6AFB603B681B687A69AC
:103D2C0013437B613B6923F4407323F003033B6132
:103D3C003B689A683B689B691B0213433A691343BF
:103D4C003B613B6923F4406323F00C033B613B690B
:103D5C0023F4704323F0F0033B613B68DA683B6863
:103D6C00DB691B0213433A6913433B613B681B69D4
:103D7C001A013B681B6A1B0313433A6913433B61EB
:103D8C00FB6823F02203FB603B685A683B685B6965
:103D9C001B011343FA681343FB607B681B687A6949
:103DAC009A607B681B683A699A617B681B68FA6841
:103DBC001A627B68012283F846207B68012283F813
:103DCC003E207B68012283F83F207B68012283F828
:103DDC0042207B68012283F843207B68012283F810
:103DEC003D20002318461837BD4680BD80B485B0F1
:103DFC0000AF786039607B681B68FB607B68294A80
:103E0C0093420BD07B68B3F1804F07D07B68264A76
:103E1C00934203D07B68254A934208D1FB6823F078
:103E2C007003FB603B685B68FA681343FB607B685C
:103E3C001C4A93420BD07B68B3F1804F07D07B6850
:103E4C00194A934203D07B68184A934208D1FB6805
:103E5C0023F44073FB603B68DB68FA681343FB6038
:103E6C00FB6823F080023B685B691343FB607B6853
:103E7C00FA681A603B689A687B68DA623B681A6871
:103E8C007B689A627B68074A934203D13B681A6944
:103E9C007B681A637B6801225A6100BF1437BD46E8
:103EAC0080BC7047002C014000040040000800401A
:103EBC0080B485B000AF786039607B6893F83C3093
:103ECC00012B01D1022346E07B68012283F83C20C0
:103EDC007B68022283F83D207B681B685B68FB6073
:103EEC007B681B689B68BB60FB6823F07003FB60FE
:103EFC003B681B68FA681343FB607B681B68FA68B5
:103F0C005A607B681B68164A93420ED07B681B680C
:103F1C00B3F1804F09D07B681B68124A934204D0DE
:103F2C007B681B68104A93420CD1BB6823F080035A
:103F3C00BB603B685B68BA681343BB607B681B68FB
:103F4C00BA689A607B68012283F83D207B68002266
:103F5C0083F83C20002318461437BD4680BC7047BC
:103F6C00002C0140000400400008004003460244BD
:103F7C00934200D1704703F8011BF9E770B5002696
:103F8C000C4D0D4C641BA410A64209D100F01AF87C
:103F9C0000260A4D0A4C641BA410A64205D170BD24
:103FAC0055F8043B98470136EEE755F8043B984723
:103FBC000136F2E704400008044000080440000801
:103FCC0008400008F8B500BFF8BC08BC9E46704716
:0C3FDC00F8B500BFF8BC08BC9E4670475A
:103FE800C0F9A4B0999282F88090BFF7C6868E9CDB
:0C3FF800FF0000000000000001020304B4
:04400400310100087E
:044008000D0100089E
:0C400C00E80700000024F40001000000A0
:04000005080027D1F7
:00000001FF
